{
    "contractName": "FixedSpreadLiquidationStrategy",
    "abi": [
        {
            "anonymous": false,
            "inputs": [
                {
                    "indexed": false,
                    "internalType": "uint8",
                    "name": "version",
                    "type": "uint8"
                }
            ],
            "name": "Initialized",
            "type": "event"
        },
        {
            "anonymous": false,
            "inputs": [
                {
                    "indexed": true,
                    "internalType": "bytes32",
                    "name": "_collateralPoolId",
                    "type": "bytes32"
                },
                {
                    "indexed": false,
                    "internalType": "uint256",
                    "name": "_positionDebtShare",
                    "type": "uint256"
                },
                {
                    "indexed": false,
                    "internalType": "uint256",
                    "name": "_positionCollateralAmount",
                    "type": "uint256"
                },
                {
                    "indexed": true,
                    "internalType": "address",
                    "name": "_positionAddress",
                    "type": "address"
                },
                {
                    "indexed": false,
                    "internalType": "uint256",
                    "name": "_debtShareToBeLiquidated",
                    "type": "uint256"
                },
                {
                    "indexed": false,
                    "internalType": "uint256",
                    "name": "_maxDebtShareToBeLiquidated",
                    "type": "uint256"
                },
                {
                    "indexed": true,
                    "internalType": "address",
                    "name": "_liquidatorAddress",
                    "type": "address"
                },
                {
                    "indexed": false,
                    "internalType": "address",
                    "name": "_collateralRecipient",
                    "type": "address"
                },
                {
                    "indexed": false,
                    "internalType": "uint256",
                    "name": "_actualDebtShareToBeLiquidated",
                    "type": "uint256"
                },
                {
                    "indexed": false,
                    "internalType": "uint256",
                    "name": "_actualDebtValueToBeLiquidated",
                    "type": "uint256"
                },
                {
                    "indexed": false,
                    "internalType": "uint256",
                    "name": "_collateralAmountToBeLiquidated",
                    "type": "uint256"
                },
                {
                    "indexed": false,
                    "internalType": "uint256",
                    "name": "_treasuryFees",
                    "type": "uint256"
                }
            ],
            "name": "LogFixedSpreadLiquidate",
            "type": "event"
        },
        {
            "anonymous": false,
            "inputs": [
                {
                    "indexed": true,
                    "internalType": "address",
                    "name": "caller",
                    "type": "address"
                },
                {
                    "indexed": false,
                    "internalType": "uint256",
                    "name": "_flashLendingEnabled",
                    "type": "uint256"
                }
            ],
            "name": "LogSetFlashLendingEnabled",
            "type": "event"
        },
        {
            "anonymous": false,
            "inputs": [
                {
                    "indexed": false,
                    "internalType": "address",
                    "name": "account",
                    "type": "address"
                }
            ],
            "name": "Paused",
            "type": "event"
        },
        {
            "anonymous": false,
            "inputs": [
                {
                    "indexed": false,
                    "internalType": "address",
                    "name": "account",
                    "type": "address"
                }
            ],
            "name": "Unpaused",
            "type": "event"
        },
        {
            "inputs": [],
            "name": "bookKeeper",
            "outputs": [
                {
                    "internalType": "contract IBookKeeper",
                    "name": "",
                    "type": "address"
                }
            ],
            "stateMutability": "view",
            "type": "function"
        },
        {
            "inputs": [],
            "name": "flashLendingEnabled",
            "outputs": [
                {
                    "internalType": "uint256",
                    "name": "",
                    "type": "uint256"
                }
            ],
            "stateMutability": "view",
            "type": "function"
        },
        {
            "inputs": [],
            "name": "liquidationEngine",
            "outputs": [
                {
                    "internalType": "contract ILiquidationEngine",
                    "name": "",
                    "type": "address"
                }
            ],
            "stateMutability": "view",
            "type": "function"
        },
        {
            "inputs": [],
            "name": "paused",
            "outputs": [
                {
                    "internalType": "bool",
                    "name": "",
                    "type": "bool"
                }
            ],
            "stateMutability": "view",
            "type": "function"
        },
        {
            "inputs": [],
            "name": "priceOracle",
            "outputs": [
                {
                    "internalType": "contract IPriceOracle",
                    "name": "",
                    "type": "address"
                }
            ],
            "stateMutability": "view",
            "type": "function"
        },
        {
            "inputs": [],
            "name": "systemDebtEngine",
            "outputs": [
                {
                    "internalType": "contract ISystemDebtEngine",
                    "name": "",
                    "type": "address"
                }
            ],
            "stateMutability": "view",
            "type": "function"
        },
        {
            "inputs": [
                {
                    "internalType": "address",
                    "name": "_bookKeeper",
                    "type": "address"
                },
                {
                    "internalType": "address",
                    "name": "_priceOracle",
                    "type": "address"
                },
                {
                    "internalType": "address",
                    "name": "_liquidationEngine",
                    "type": "address"
                },
                {
                    "internalType": "address",
                    "name": "_systemDebtEngine",
                    "type": "address"
                }
            ],
            "name": "initialize",
            "outputs": [],
            "stateMutability": "nonpayable",
            "type": "function"
        },
        {
            "inputs": [
                {
                    "internalType": "uint256",
                    "name": "_flashLendingEnabled",
                    "type": "uint256"
                }
            ],
            "name": "setFlashLendingEnabled",
            "outputs": [],
            "stateMutability": "nonpayable",
            "type": "function"
        },
        {
            "inputs": [
                {
                    "internalType": "bytes32",
                    "name": "_collateralPoolId",
                    "type": "bytes32"
                },
                {
                    "internalType": "uint256",
                    "name": "_positionDebtShare",
                    "type": "uint256"
                },
                {
                    "internalType": "uint256",
                    "name": "_positionCollateralAmount",
                    "type": "uint256"
                },
                {
                    "internalType": "address",
                    "name": "_positionAddress",
                    "type": "address"
                },
                {
                    "internalType": "uint256",
                    "name": "_debtShareToBeLiquidated",
                    "type": "uint256"
                },
                {
                    "internalType": "uint256",
                    "name": "_maxDebtShareToBeLiquidated",
                    "type": "uint256"
                },
                {
                    "internalType": "address",
                    "name": "_liquidatorAddress",
                    "type": "address"
                },
                {
                    "internalType": "address",
                    "name": "_collateralRecipient",
                    "type": "address"
                },
                {
                    "internalType": "bytes",
                    "name": "_data",
                    "type": "bytes"
                }
            ],
            "name": "execute",
            "outputs": [],
            "stateMutability": "nonpayable",
            "type": "function"
        },
        {
            "inputs": [],
            "name": "pause",
            "outputs": [],
            "stateMutability": "nonpayable",
            "type": "function"
        },
        {
            "inputs": [],
            "name": "unpause",
            "outputs": [],
            "stateMutability": "nonpayable",
            "type": "function"
        }
    ],
    "bytecode": "0x608060405234801561001057600080fd5b50612757806100206000396000f3fe608060405234801561001057600080fd5b50600436106100a95760003560e01c80635c975abb116100715780635c975abb146101215780638456cb5914610137578063df1a4b731461013f578063e3b3932a14610156578063f79b9f4a14610169578063f8c8765e1461017c57600080fd5b806316d8d291146100ae5780632630c12f146100c357806328e49a42146100f35780633f4ba83a1461010657806344bf3c721461010e575b600080fd5b6100c16100bc36600461235a565b61018f565b005b609a546100d6906001600160a01b031681565b6040516001600160a01b0390911681526020015b60405180910390f35b6099546100d6906001600160a01b031681565b6100c1610cdb565b6098546100d6906001600160a01b031681565b60335460ff1660405190151581526020016100ea565b6100c1610f26565b610148609b5481565b6040519081526020016100ea565b6097546100d6906001600160a01b031681565b6100c1610177366004612436565b61116e565b6100c161018a36600461244f565b6113ec565b6002606554036101e65760405162461bcd60e51b815260206004820152601f60248201527f5265656e7472616e637947756172643a207265656e7472616e742063616c6c0060448201526064015b60405180910390fd5b60026065556101f3611727565b609760009054906101000a90046001600160a01b03166001600160a01b031663c8cc243f6040518163ffffffff1660e01b8152600401602060405180830381865afa158015610246573d6000803e3d6000fd5b505050506040513d601f19601f8201168201806040525081019061026a91906124ab565b604051632474521560e21b81527f73cc1824a5ac1764c2e141cf3615a9dcb73677c4e5be5154addc88d3e0cc148060048201523360248201526001600160a01b0391909116906391d1485490604401602060405180830381865afa1580156102d6573d6000803e3d6000fd5b505050506040513d601f19601f820116820180604052508101906102fa91906124e4565b61033f5760405162461bcd60e51b8152602060048201526016602482015275216c69717569646174696f6e456e67696e67526f6c6560501b60448201526064016101dd565b6000891161038e5760405162461bcd60e51b81526020600482015260286024820152600080516020612702833981519152604482015267195c9bcb5919589d60c21b60648201526084016101dd565b600088116103ea5760405162461bcd60e51b81526020600482015260356024820152600080516020612702833981519152604482015274195c9bcb58dbdb1b185d195c985b0b585b5bdd5b9d605a1b60648201526084016101dd565b6001600160a01b03871661044b5760405162461bcd60e51b8152602060048201526034602482015260008051602061270283398151915260448201527365726f2d706f736974696f6e2d6164647265737360601b60648201526084016101dd565b60006104568b61176f565b9050600081116104b35760405162461bcd60e51b8152602060048201526034602482015260008051602061270283398151915260448201527365726f2d636f6c6c61746572616c2d707269636560601b60648201526084016101dd565b60006104c28c89848d8f6119c1565b9050868160a00151111561054c5760405162461bcd60e51b815260206004820152604560248201527f46697865645370726561644c69717569646174696f6e53747261746567792f6560448201527f78636565642d6d61782d646562742d76616c75652d746f2d62652d6c6971756960648201526419185d195960da1b608482015260a4016101dd565b600160ff1b8160c0015110801561056a5750600160ff1b8160a00151105b6105c65760405162461bcd60e51b815260206004820152602760248201527f46697865645370726561644c69717569646174696f6e53747261746567792f6f604482015266766572666c6f7760c81b60648201526084016101dd565b609760009054906101000a90046001600160a01b03166001600160a01b031663b1df25948d8b30609960009054906101000a90046001600160a01b03168660c0015161061190612515565b8760a0015161061f90612515565b6040516001600160e01b031960e089901b16815260048101969096526001600160a01b039485166024870152928416604486015292166064840152608483019190915260a482015260c401600060405180830381600087803b15801561068457600080fd5b505af1158015610698573d6000803e3d6000fd5b505050506000609760009054906101000a90046001600160a01b03166001600160a01b031663d86824616040518163ffffffff1660e01b8152600401602060405180830381865afa1580156106f1573d6000803e3d6000fd5b505050506040513d601f19601f8201168201806040525081019061071591906124ab565b6001600160a01b0316638272e1388e6040518263ffffffff1660e01b815260040161074291815260200190565b602060405180830381865afa15801561075f573d6000803e3d6000fd5b505050506040513d601f19601f8201168201806040525081019061078391906124ab565b60c083015160408051600060208201529293506001600160a01b038416926399443616928e923092016040516020818303038152906040526040518563ffffffff1660e01b81526004016107da9493929190612531565b600060405180830381600087803b1580156107f457600080fd5b505af1158015610808573d6000803e3d6000fd5b50505050609760009054906101000a90046001600160a01b03166001600160a01b031663b5d993298e308961084e8760e001518860c001516120e090919063ffffffff16565b6040516001600160e01b031960e087901b16815260048101949094526001600160a01b039283166024850152911660448301526064820152608401600060405180830381600087803b1580156108a357600080fd5b505af11580156108b7573d6000803e3d6000fd5b50505050806001600160a01b0316639944361630886108e78660e001518760c001516120e090919063ffffffff16565b6040805160006020820152016040516020818303038152906040526040518563ffffffff1660e01b81526004016109219493929190612531565b600060405180830381600087803b15801561093b57600080fd5b505af115801561094f573d6000803e3d6000fd5b5050505060e082015115610a9b57609760009054906101000a90046001600160a01b03166001600160a01b031663b5d993298e30609960009054906101000a90046001600160a01b03168660e001516040518563ffffffff1660e01b81526004016109dd94939291909384526001600160a01b03928316602085015291166040830152606082015260800190565b600060405180830381600087803b1580156109f757600080fd5b505af1158015610a0b573d6000803e3d6000fd5b505060995460e085015160408051600060208201526001600160a01b038781169650639944361695503094169291016040516020818303038152906040526040518563ffffffff1660e01b8152600401610a689493929190612531565b600060405180830381600087803b158015610a8257600080fd5b505af1158015610a96573d6000803e3d6000fd5b505050505b609b546001148015610aac57508315155b8015610ac657506097546001600160a01b03878116911614155b8015610ae057506098546001600160a01b03878116911614155b15610b6a57856001600160a01b031663af7bd142338460800151610b158660e001518760c001516120e090919063ffffffff16565b89896040518663ffffffff1660e01b8152600401610b379594939291906125a2565b600060405180830381600087803b158015610b5157600080fd5b505af1158015610b65573d6000803e3d6000fd5b505050505b60975460995460808401516040516323055e1560e21b81526001600160a01b038b8116600483015292831660248201526044810191909152911690638c15785490606401600060405180830381600087803b158015610bc857600080fd5b505af1158015610bdc573d6000803e3d6000fd5b505050508b8260000181815250508a8260200181815250508882604001818152505087826060018181525050866001600160a01b03168a6001600160a01b03168e7f498293dc3e787b3f04a320f39b6d8853b395dbbccb2abadfb92ec74a01f1338185600001518660200151876040015188606001518d8a60a001518b608001518c60c001518d60e00151604051610cbf999897969594939291909889526020890197909752604088019590955260608701939093526001600160a01b0391909116608086015260a085015260c084015260e08301526101008201526101200190565b60405180910390a4505060016065555050505050505050505050565b6097546040805163c8cc243f60e01b815290516000926001600160a01b03169163c8cc243f9160048083019260209291908290030181865afa158015610d25573d6000803e3d6000fd5b505050506040513d601f19601f82011682018060405250810190610d4991906124ab565b9050806001600160a01b03166391d14854826001600160a01b031663e58378bb6040518163ffffffff1660e01b8152600401602060405180830381865afa158015610d98573d6000803e3d6000fd5b505050506040513d601f19601f82011682018060405250810190610dbc91906125ee565b6040516001600160e01b031960e084901b1681526004810191909152336024820152604401602060405180830381865afa158015610dfe573d6000803e3d6000fd5b505050506040513d601f19601f82011682018060405250810190610e2291906124e4565b80610eff5750806001600160a01b03166391d14854826001600160a01b031663b536818a6040518163ffffffff1660e01b8152600401602060405180830381865afa158015610e75573d6000803e3d6000fd5b505050506040513d601f19601f82011682018060405250810190610e9991906125ee565b6040516001600160e01b031960e084901b1681526004810191909152336024820152604401602060405180830381865afa158015610edb573d6000803e3d6000fd5b505050506040513d601f19601f82011682018060405250810190610eff91906124e4565b610f1b5760405162461bcd60e51b81526004016101dd90612607565b610f236120f5565b50565b6097546040805163c8cc243f60e01b815290516000926001600160a01b03169163c8cc243f9160048083019260209291908290030181865afa158015610f70573d6000803e3d6000fd5b505050506040513d601f19601f82011682018060405250810190610f9491906124ab565b9050806001600160a01b03166391d14854826001600160a01b031663e58378bb6040518163ffffffff1660e01b8152600401602060405180830381865afa158015610fe3573d6000803e3d6000fd5b505050506040513d601f19601f8201168201806040525081019061100791906125ee565b6040516001600160e01b031960e084901b1681526004810191909152336024820152604401602060405180830381865afa158015611049573d6000803e3d6000fd5b505050506040513d601f19601f8201168201806040525081019061106d91906124e4565b8061114a5750806001600160a01b03166391d14854826001600160a01b031663b536818a6040518163ffffffff1660e01b8152600401602060405180830381865afa1580156110c0573d6000803e3d6000fd5b505050506040513d601f19601f820116820180604052508101906110e491906125ee565b6040516001600160e01b031960e084901b1681526004810191909152336024820152604401602060405180830381865afa158015611126573d6000803e3d6000fd5b505050506040513d601f19601f8201168201806040525081019061114a91906124e4565b6111665760405162461bcd60e51b81526004016101dd90612607565b610f23612147565b6097546040805163c8cc243f60e01b815290516000926001600160a01b03169163c8cc243f9160048083019260209291908290030181865afa1580156111b8573d6000803e3d6000fd5b505050506040513d601f19601f820116820180604052508101906111dc91906124ab565b9050806001600160a01b03166391d14854826001600160a01b031663e58378bb6040518163ffffffff1660e01b8152600401602060405180830381865afa15801561122b573d6000803e3d6000fd5b505050506040513d601f19601f8201168201806040525081019061124f91906125ee565b6040516001600160e01b031960e084901b1681526004810191909152336024820152604401602060405180830381865afa158015611291573d6000803e3d6000fd5b505050506040513d601f19601f820116820180604052508101906112b591906124e4565b806113925750806001600160a01b03166391d14854826001600160a01b031663b536818a6040518163ffffffff1660e01b8152600401602060405180830381865afa158015611308573d6000803e3d6000fd5b505050506040513d601f19601f8201168201806040525081019061132c91906125ee565b6040516001600160e01b031960e084901b1681526004810191909152336024820152604401602060405180830381865afa15801561136e573d6000803e3d6000fd5b505050506040513d601f19601f8201168201806040525081019061139291906124e4565b6113ae5760405162461bcd60e51b81526004016101dd90612607565b609b82905560405182815233907f684f8e172a780a0039365d294d89561032ab348a858ed68283e8f531a22981079060200160405180910390a25050565b600054610100900460ff161580801561140c5750600054600160ff909116105b806114265750303b158015611426575060005460ff166001145b6114895760405162461bcd60e51b815260206004820152602e60248201527f496e697469616c697a61626c653a20636f6e747261637420697320616c72656160448201526d191e481a5b9a5d1a585b1a5e995960921b60648201526084016101dd565b6000805460ff1916600117905580156114ac576000805461ff0019166101001790555b6114b4612184565b6114bc6121b3565b846001600160a01b0316636f3a3bfc6040518163ffffffff1660e01b81526004016020604051808303816000875af11580156114fc573d6000803e3d6000fd5b505050506040513d601f19601f8201168201806040525081019061152091906125ee565b5084609760006101000a8154816001600160a01b0302191690836001600160a01b03160217905550836001600160a01b0316639d1eea786040518163ffffffff1660e01b8152600401602060405180830381865afa158015611586573d6000803e3d6000fd5b505050506040513d601f19601f820116820180604052508101906115aa91906125ee565b5083609a60006101000a8154816001600160a01b0302191690836001600160a01b03160217905550826001600160a01b031663957aa58c6040518163ffffffff1660e01b8152600401602060405180830381865afa158015611610573d6000803e3d6000fd5b505050506040513d601f19601f8201168201806040525081019061163491906125ee565b5082609860006101000a8154816001600160a01b0302191690836001600160a01b03160217905550816001600160a01b0316632a608d5b6040518163ffffffff1660e01b8152600401602060405180830381865afa15801561169a573d6000803e3d6000fd5b505050506040513d601f19601f820116820180604052508101906116be91906125ee565b50609980546001600160a01b0319166001600160a01b0384161790558015611720576000805461ff0019169055604051600181527f7f26b83ff96e1f2b6a682f133852f6798a09c465da95921460cefb38474024989060200160405180910390a15b5050505050565b60335460ff161561176d5760405162461bcd60e51b815260206004820152601060248201526f14185d5cd8589b194e881c185d5cd95960821b60448201526064016101dd565b565b600080609760009054906101000a90046001600160a01b03166001600160a01b031663d86824616040518163ffffffff1660e01b8152600401602060405180830381865afa1580156117c5573d6000803e3d6000fd5b505050506040513d601f19601f820116820180604052508101906117e991906124ab565b6001600160a01b0316638c0adf62846040518263ffffffff1660e01b815260040161181691815260200190565b602060405180830381865afa158015611833573d6000803e3d6000fd5b505050506040513d601f19601f8201168201806040525081019061185791906124ab565b90506000819050600080826001600160a01b031663140d27206040518163ffffffff1660e01b815260040160408051808303816000875af11580156118a0573d6000803e3d6000fd5b505050506040513d601f19601f820116820180604052508101906118c4919061263e565b915091508061192a5760405162461bcd60e51b815260206004820152602c60248201527f46697865645370726561644c69717569646174696f6e53747261746567792f6960448201526b6e76616c69642d707269636560a01b60648201526084016101dd565b6119b761193b83633b9aca006121e2565b609a60009054906101000a90046001600160a01b03166001600160a01b0316639d1eea786040518163ffffffff1660e01b8152600401602060405180830381865afa15801561198e573d6000803e3d6000fd5b505050506040513d601f19601f820116820180604052508101906119b291906125ee565b61220f565b9695505050505050565b611a106040518061012001604052806000815260200160008152602001600081526020016000815260200160008152602001600081526020016000815260200160008152602001600081525090565b611a426040518060a0016040528060008152602001600081526020016000815260200160008152602001600081525090565b609760009054906101000a90046001600160a01b03166001600160a01b031663d86824616040518163ffffffff1660e01b8152600401602060405180830381865afa158015611a95573d6000803e3d6000fd5b505050506040513d601f19601f82011682018060405250810190611ab991906124ab565b6001600160a01b031663a09b0fe0886040518263ffffffff1660e01b8152600401611ae691815260200190565b602060405180830381865afa158015611b03573d6000803e3d6000fd5b505050506040513d601f19601f82011682018060405250810190611b2791906125ee565b81526097546040805163d868246160e01b815290516001600160a01b039092169163d8682461916004808201926020929091908290030181865afa158015611b73573d6000803e3d6000fd5b505050506040513d601f19601f82011682018060405250810190611b9791906124ab565b6001600160a01b031663e73bbc79886040518263ffffffff1660e01b8152600401611bc491815260200190565b602060405180830381865afa158015611be1573d6000803e3d6000fd5b505050506040513d601f19601f82011682018060405250810190611c0591906125ee565b6020808301919091526097546040805163d868246160e01b815290516001600160a01b039092169263d8682461926004808401938290030181865afa158015611c52573d6000803e3d6000fd5b505050506040513d601f19601f82011682018060405250810190611c7691906124ab565b6001600160a01b0316630ec057e5886040518263ffffffff1660e01b8152600401611ca391815260200190565b602060405180830381865afa158015611cc0573d6000803e3d6000fd5b505050506040513d601f19601f82011682018060405250810190611ce491906125ee565b604080830191909152609754815163d868246160e01b815291516001600160a01b039091169163d86824619160048083019260209291908290030181865afa158015611d34573d6000803e3d6000fd5b505050506040513d601f19601f82011682018060405250810190611d5891906124ab565b6001600160a01b0316639c1985d5886040518263ffffffff1660e01b8152600401611d8591815260200190565b602060405180830381865afa158015611da2573d6000803e3d6000fd5b505050506040513d601f19601f82011682018060405250810190611dc691906125ee565b60608201526097546040805163d868246160e01b815290516001600160a01b039092169163d8682461916004808201926020929091908290030181865afa158015611e15573d6000803e3d6000fd5b505050506040513d601f19601f82011682018060405250810190611e3991906124ab565b6001600160a01b03166373a4f962886040518263ffffffff1660e01b8152600401611e6691815260200190565b602060405180830381865afa158015611e83573d6000803e3d6000fd5b505050506040513d601f19601f82011682018060405250810190611ea791906125ee565b60808201528051600090611ebc908590612283565b90506000826020015111611f385760405162461bcd60e51b815260206004820152603760248201527f46697865645370726561644c69717569646174696f6e53747261746567792f6360448201527f6c6f73652d666163746f722d6270732d6e6f742d73657400000000000000000060648201526084016101dd565b611f5b612710611f5584602001518761228390919063ffffffff16565b9061228f565b61010084018190528711611f6f5786611f76565b8261010001515b60a084018190528251611f899190612283565b608084018190526040830151600091611fad918991611f5591612710918391612283565b905085811180611fde57506080840151611fc89083906120e0565b611fdc88611fd689856120e0565b90612283565b105b1561200d5760c08401869052604083015161200390611f55612710611fd68b8b612283565b608085015261206c565b8360800151821180156120325750606083015160808501516120309084906120e0565b105b156120645760808401829052604083015161205a908890611f55906127109082908790612283565b60c085015261206c565b60c084018190525b8251608085015161207c9161228f565b60a0850152604083015160c08501516000916120ae916120a39190611f5590612710612283565b60c0870151906120e0565b90506120cd612710611f5586608001518461228390919063ffffffff16565b60e0860152509298975050505050505050565b60006120ec828461266a565b90505b92915050565b6120fd61229b565b6033805460ff191690557f5db9ee0a495bf2e6ff9c91a7834c1ba4fdd244a5e8aa4e537bd38aeae4b073aa335b6040516001600160a01b03909116815260200160405180910390a1565b61214f611727565b6033805460ff191660011790557f62e78cea01bee320cd4e420270b5ea74000d11b0c9f74754ebdbfc544b05a25861212a3390565b600054610100900460ff166121ab5760405162461bcd60e51b81526004016101dd9061267d565b61176d6122e4565b600054610100900460ff166121da5760405162461bcd60e51b81526004016101dd9061267d565b61176d612317565b6000811580612206575082826121f881836126c8565b925061220490836126df565b145b6120ef57600080fd5b60008082116122625760405162461bcd60e51b815260206004820152602b602482015260008051602061270283398151915260448201526a32b93796b234bb34b9b7b960a91b60648201526084016101dd565b81612279846b033b2e3c9fd0803ce80000006121e2565b6120ec91906126df565b60006120ec82846126c8565b60006120ec82846126df565b60335460ff1661176d5760405162461bcd60e51b815260206004820152601460248201527314185d5cd8589b194e881b9bdd081c185d5cd95960621b60448201526064016101dd565b600054610100900460ff1661230b5760405162461bcd60e51b81526004016101dd9061267d565b6033805460ff19169055565b600054610100900460ff1661233e5760405162461bcd60e51b81526004016101dd9061267d565b6001606555565b6001600160a01b0381168114610f2357600080fd5b6000806000806000806000806000806101208b8d03121561237a57600080fd5b8a35995060208b0135985060408b0135975060608b013561239a81612345565b965060808b0135955060a08b0135945060c08b01356123b881612345565b935060e08b01356123c881612345565b92506101008b013567ffffffffffffffff808211156123e657600080fd5b818d0191508d601f8301126123fa57600080fd5b81358181111561240957600080fd5b8e602082850101111561241b57600080fd5b6020830194508093505050509295989b9194979a5092959850565b60006020828403121561244857600080fd5b5035919050565b6000806000806080858703121561246557600080fd5b843561247081612345565b9350602085013561248081612345565b9250604085013561249081612345565b915060608501356124a081612345565b939692955090935050565b6000602082840312156124bd57600080fd5b81516124c881612345565b9392505050565b805180151581146124df57600080fd5b919050565b6000602082840312156124f657600080fd5b6120ec826124cf565b634e487b7160e01b600052601160045260246000fd5b6000600160ff1b820161252a5761252a6124ff565b5060000390565b600060018060a01b038087168352602081871681850152856040850152608060608501528451915081608085015260005b8281101561257e5785810182015185820160a001528101612562565b5050600060a0828501015260a0601f19601f83011684010191505095945050505050565b60018060a01b038616815284602082015283604082015260806060820152816080820152818360a0830137600081830160a090810191909152601f909201601f19160101949350505050565b60006020828403121561260057600080fd5b5051919050565b60208082526017908201527f21286f776e6572526f6c65206f7220676f76526f6c6529000000000000000000604082015260600190565b6000806040838503121561265157600080fd5b82519150612661602084016124cf565b90509250929050565b818103818111156120ef576120ef6124ff565b6020808252602b908201527f496e697469616c697a61626c653a20636f6e7472616374206973206e6f74206960408201526a6e697469616c697a696e6760a81b606082015260800190565b80820281158282048414176120ef576120ef6124ff565b6000826126fc57634e487b7160e01b600052601260045260246000fd5b50049056fe46697865645370726561644c69717569646174696f6e53747261746567792f7aa2646970667358221220bb3143b33fb234d2c5beb269176556a2b7e8d924927e8fd5f8ceb134ad9f0fa064736f6c63430008110033",
    "immutableReferences": {},
    "source": "// SPDX-License-Identifier: AGPL-3.0-or-later\npragma solidity 0.8.17;\n\nimport \"@openzeppelin/contracts-upgradeable/security/PausableUpgradeable.sol\";\nimport \"@openzeppelin/contracts-upgradeable/access/AccessControlUpgradeable.sol\";\nimport \"@openzeppelin/contracts-upgradeable/security/ReentrancyGuardUpgradeable.sol\";\nimport \"@openzeppelin/contracts-upgradeable/utils/math/SafeMathUpgradeable.sol\";\n\nimport \"../../interfaces/IBookKeeper.sol\";\nimport \"../../interfaces/IPriceFeed.sol\";\nimport \"../../interfaces/IPriceOracle.sol\";\nimport \"../../interfaces/ILiquidationEngine.sol\";\nimport \"../../interfaces/ILiquidationStrategy.sol\";\nimport \"../../interfaces/ISystemDebtEngine.sol\";\nimport \"../../interfaces/IFlashLendingCallee.sol\";\nimport \"../../interfaces/IGenericTokenAdapter.sol\";\nimport \"../../interfaces/IManager.sol\";\n\ncontract FixedSpreadLiquidationStrategy is PausableUpgradeable, ReentrancyGuardUpgradeable, ILiquidationStrategy {\n    using SafeMathUpgradeable for uint256;\n\n    struct LiquidationInfo {\n        uint256 positionDebtShare; // [wad]\n        uint256 positionCollateralAmount; // [wad]\n        uint256 debtShareToBeLiquidated; // [wad]\n        uint256 maxDebtShareToBeLiquidated; // [wad]\n        uint256 actualDebtValueToBeLiquidated; // [rad]\n        uint256 actualDebtShareToBeLiquidated; // [wad]\n        uint256 collateralAmountToBeLiquidated; // [wad]\n        uint256 treasuryFees; // [wad]\n        uint256 maxLiquidatableDebtShare; // [wad]\n    }\n\n    struct LocalVars {\n        uint256 debtAccumulatedRate; // [ray]\n        uint256 closeFactorBps;\n        uint256 liquidatorIncentiveBps;\n        uint256 debtFloor; // [rad]\n        uint256 treasuryFeesBps;\n    }\n\n    IBookKeeper public bookKeeper; // Core CDP Engine\n    ILiquidationEngine public liquidationEngine; // Liquidation module\n    ISystemDebtEngine public systemDebtEngine; // Recipient of FUSD raised in auctions\n    IPriceOracle public priceOracle; // Collateral price module\n\n    uint256 public flashLendingEnabled;\n\n    event LogFixedSpreadLiquidate(\n        bytes32 indexed _collateralPoolId,\n        uint256 _positionDebtShare,\n        uint256 _positionCollateralAmount,\n        address indexed _positionAddress,\n        uint256 _debtShareToBeLiquidated,\n        uint256 _maxDebtShareToBeLiquidated,\n        address indexed _liquidatorAddress,\n        address _collateralRecipient,\n        uint256 _actualDebtShareToBeLiquidated,\n        uint256 _actualDebtValueToBeLiquidated,\n        uint256 _collateralAmountToBeLiquidated,\n        uint256 _treasuryFees\n    );\n    event LogSetFlashLendingEnabled(address indexed caller, uint256 _flashLendingEnabled);\n\n    modifier onlyOwnerOrGov() {\n        IAccessControlConfig _accessControlConfig = IAccessControlConfig(IBookKeeper(bookKeeper).accessControlConfig());\n        require(\n            _accessControlConfig.hasRole(_accessControlConfig.OWNER_ROLE(), msg.sender) ||\n                _accessControlConfig.hasRole(_accessControlConfig.GOV_ROLE(), msg.sender),\n            \"!(ownerRole or govRole)\"\n        );\n        _;\n    }\n\n    function initialize(address _bookKeeper, address _priceOracle, address _liquidationEngine, address _systemDebtEngine) external initializer {\n        PausableUpgradeable.__Pausable_init();\n        ReentrancyGuardUpgradeable.__ReentrancyGuard_init();\n\n        IBookKeeper(_bookKeeper).totalStablecoinIssued(); // Sanity Check Call\n        bookKeeper = IBookKeeper(_bookKeeper);\n\n        IPriceOracle(_priceOracle).stableCoinReferencePrice(); // Sanity Check Call\n        priceOracle = IPriceOracle(_priceOracle);\n\n        ILiquidationEngine(_liquidationEngine).live(); // Sanity Check Call\n        liquidationEngine = ILiquidationEngine(_liquidationEngine);\n\n        ISystemDebtEngine(_systemDebtEngine).surplusBuffer(); // Sanity Check Call\n        systemDebtEngine = ISystemDebtEngine(_systemDebtEngine);\n    }\n\n    uint256 constant BLN = 10 ** 9;\n    uint256 constant WAD = 10 ** 18;\n    uint256 constant RAY = 10 ** 27;\n\n    function mul(uint256 x, uint256 y) internal pure returns (uint256 z) {\n        require(y == 0 || (z = x * y) / y == x);\n    }\n\n    function rdiv(uint256 x, uint256 y) internal pure returns (uint256 z) {\n        require(y > 0, \"FixedSpreadLiquidationStrategy/zero-divisor\");\n        z = mul(x, RAY) / y;\n    }\n\n    function setFlashLendingEnabled(uint256 _flashLendingEnabled) external onlyOwnerOrGov {\n        flashLendingEnabled = _flashLendingEnabled;\n        emit LogSetFlashLendingEnabled(msg.sender, _flashLendingEnabled);\n    }\n\n    function getFeedPrice(bytes32 collateralPoolId) internal returns (uint256 feedPrice) {\n        address _priceFeedAddress = ICollateralPoolConfig(bookKeeper.collateralPoolConfig()).getPriceFeed(collateralPoolId);\n        IPriceFeed _priceFeed = IPriceFeed(_priceFeedAddress);\n        (bytes32 price, bool priceOk) = _priceFeed.peekPrice();\n        require(priceOk, \"FixedSpreadLiquidationStrategy/invalid-price\");\n        // (price [wad] * BLN [10 ** 9] ) [ray] / priceOracle.stableCoinReferencePrice [ray]\n        feedPrice = rdiv(mul(uint256(price), BLN), priceOracle.stableCoinReferencePrice()); // [ray]\n    }\n\n    function _calculateLiquidationInfo(\n        bytes32 _collateralPoolId,\n        uint256 _debtShareToBeLiquidated,\n        uint256 _currentCollateralPrice,\n        uint256 _positionCollateralAmount,\n        uint256 _positionDebtShare\n    ) internal view returns (LiquidationInfo memory info) {\n        LocalVars memory _vars;\n        _vars.debtAccumulatedRate = ICollateralPoolConfig(bookKeeper.collateralPoolConfig()).getDebtAccumulatedRate(_collateralPoolId); // [ray]\n        _vars.closeFactorBps = ICollateralPoolConfig(bookKeeper.collateralPoolConfig()).getCloseFactorBps(_collateralPoolId);\n        _vars.liquidatorIncentiveBps = ICollateralPoolConfig(bookKeeper.collateralPoolConfig()).getLiquidatorIncentiveBps(_collateralPoolId);\n        _vars.debtFloor = ICollateralPoolConfig(bookKeeper.collateralPoolConfig()).getDebtFloor(_collateralPoolId); // [rad]\n        _vars.treasuryFeesBps = ICollateralPoolConfig(bookKeeper.collateralPoolConfig()).getTreasuryFeesBps(_collateralPoolId);\n\n        uint256 _positionDebtValue = _positionDebtShare.mul(_vars.debtAccumulatedRate);\n\n        require(_vars.closeFactorBps > 0, \"FixedSpreadLiquidationStrategy/close-factor-bps-not-set\");\n        info.maxLiquidatableDebtShare = _positionDebtShare.mul(_vars.closeFactorBps).div(10000); // [wad]\n\n        info.actualDebtShareToBeLiquidated = _debtShareToBeLiquidated > info.maxLiquidatableDebtShare\n            ? info.maxLiquidatableDebtShare\n            : _debtShareToBeLiquidated; // [wad]\n        info.actualDebtValueToBeLiquidated = info.actualDebtShareToBeLiquidated.mul(_vars.debtAccumulatedRate); // [rad]\n\n        uint256 _maxCollateralAmountToBeLiquidated = info.actualDebtValueToBeLiquidated.mul(_vars.liquidatorIncentiveBps).div(10000).div(\n            _currentCollateralPrice\n        ); // [wad]\n\n        if (\n            _maxCollateralAmountToBeLiquidated > _positionCollateralAmount ||\n            _positionCollateralAmount.sub(_maxCollateralAmountToBeLiquidated).mul(_currentCollateralPrice) <\n            _positionDebtValue.sub(info.actualDebtValueToBeLiquidated)\n        ) {\n            info.collateralAmountToBeLiquidated = _positionCollateralAmount;\n            info.actualDebtValueToBeLiquidated = _currentCollateralPrice.mul(_positionCollateralAmount).mul(10000).div(_vars.liquidatorIncentiveBps); // [rad]\n        } else {\n            if (\n                _positionDebtValue > info.actualDebtValueToBeLiquidated &&\n                _positionDebtValue.sub(info.actualDebtValueToBeLiquidated) < _vars.debtFloor\n            ) {\n                info.actualDebtValueToBeLiquidated = _positionDebtValue; // [rad]\n                info.collateralAmountToBeLiquidated = info.actualDebtValueToBeLiquidated.mul(_vars.liquidatorIncentiveBps).div(10000).div(\n                    _currentCollateralPrice\n                ); // [wad]\n            } else {\n                info.collateralAmountToBeLiquidated = _maxCollateralAmountToBeLiquidated; // [wad]\n            }\n        }\n\n        info.actualDebtShareToBeLiquidated = info.actualDebtValueToBeLiquidated.div(_vars.debtAccumulatedRate); // [wad]\n\n        // collateralAmountToBeLiquidated - (collateralAmountToBeLiquidated * 10000 / liquidatorIncentiveBps)\n        // 1 - (1 * 10000 / 10500) = 0.047619048 which is roughly around 0.05\n        uint256 liquidatorIncentiveCollectedFromPosition = info.collateralAmountToBeLiquidated.sub(\n            info.collateralAmountToBeLiquidated.mul(10000).div(_vars.liquidatorIncentiveBps)\n        ); // [wad]\n\n        // liquidatorIncentiveCollectedFromPosition * (treasuryFeesBps) / 10000\n        // 0.047619048 * 5000 / 10000\n        info.treasuryFees = liquidatorIncentiveCollectedFromPosition.mul(_vars.treasuryFeesBps).div(10000); // [wad]\n    }\n\n    function execute(\n        bytes32 _collateralPoolId,\n        uint256 _positionDebtShare, // Debt Value                  [rad]\n        uint256 _positionCollateralAmount, // Collateral Amount           [wad]\n        address _positionAddress, // Address that will receive any leftover collateral\n        uint256 _debtShareToBeLiquidated, // The value of debt to be liquidated as specified by the liquidator [rad]\n        uint256 _maxDebtShareToBeLiquidated, // The maximum value of debt to be liquidated as specified by the liquidator in case of full liquidation for slippage control [rad]\n        address _liquidatorAddress,\n        address _collateralRecipient,\n        bytes calldata _data // Data to pass in external call; if length 0, no call is done\n    ) external override nonReentrant whenNotPaused {\n        require(\n            IAccessControlConfig(bookKeeper.accessControlConfig()).hasRole(keccak256(\"LIQUIDATION_ENGINE_ROLE\"), msg.sender),\n            \"!liquidationEngingRole\"\n        );\n\n        require(_positionDebtShare > 0, \"FixedSpreadLiquidationStrategy/zero-debt\");\n        require(_positionCollateralAmount > 0, \"FixedSpreadLiquidationStrategy/zero-collateral-amount\");\n        require(_positionAddress != address(0), \"FixedSpreadLiquidationStrategy/zero-position-address\");\n\n        uint256 _currentCollateralPrice = getFeedPrice(_collateralPoolId); // [ray]\n        require(_currentCollateralPrice > 0, \"FixedSpreadLiquidationStrategy/zero-collateral-price\");\n\n        LiquidationInfo memory info = _calculateLiquidationInfo(\n            _collateralPoolId,\n            _debtShareToBeLiquidated,\n            _currentCollateralPrice,\n            _positionCollateralAmount,\n            _positionDebtShare\n        );\n\n        require(\n            info.actualDebtShareToBeLiquidated <= _maxDebtShareToBeLiquidated,\n            \"FixedSpreadLiquidationStrategy/exceed-max-debt-value-to-be-liquidated\"\n        );\n        require(\n            info.collateralAmountToBeLiquidated < 2 ** 255 && info.actualDebtShareToBeLiquidated < 2 ** 255,\n            \"FixedSpreadLiquidationStrategy/overflow\"\n        );\n        bookKeeper.confiscatePosition(\n            _collateralPoolId,\n            _positionAddress,\n            address(this),\n            address(systemDebtEngine),\n            -int256(info.collateralAmountToBeLiquidated),\n            -int256(info.actualDebtShareToBeLiquidated)\n        );\n        IGenericTokenAdapter _adapter = IGenericTokenAdapter(ICollateralPoolConfig(bookKeeper.collateralPoolConfig()).getAdapter(_collateralPoolId));\n        _adapter.onMoveCollateral(_positionAddress, address(this), info.collateralAmountToBeLiquidated, abi.encode(0));\n\n        bookKeeper.moveCollateral(_collateralPoolId, address(this), _collateralRecipient, info.collateralAmountToBeLiquidated.sub(info.treasuryFees));\n        _adapter.onMoveCollateral(address(this), _collateralRecipient, info.collateralAmountToBeLiquidated.sub(info.treasuryFees), abi.encode(0));\n\n        if (info.treasuryFees > 0) {\n            bookKeeper.moveCollateral(_collateralPoolId, address(this), address(systemDebtEngine), info.treasuryFees);\n            _adapter.onMoveCollateral(address(this), address(systemDebtEngine), info.treasuryFees, abi.encode(0));\n        }\n\n        if (\n            flashLendingEnabled == 1 &&\n            _data.length > 0 &&\n            _collateralRecipient != address(bookKeeper) &&\n            _collateralRecipient != address(liquidationEngine)\n        ) {\n            IFlashLendingCallee(_collateralRecipient).flashLendingCall(\n                msg.sender,\n                info.actualDebtValueToBeLiquidated,\n                info.collateralAmountToBeLiquidated.sub(info.treasuryFees),\n                _data\n            );\n        }\n\n        bookKeeper.moveStablecoin(_liquidatorAddress, address(systemDebtEngine), info.actualDebtValueToBeLiquidated);\n\n        info.positionDebtShare = _positionDebtShare;\n        info.positionCollateralAmount = _positionCollateralAmount;\n        info.debtShareToBeLiquidated = _debtShareToBeLiquidated;\n        info.maxDebtShareToBeLiquidated = _maxDebtShareToBeLiquidated;\n        emit LogFixedSpreadLiquidate(\n            _collateralPoolId,\n            info.positionDebtShare,\n            info.positionCollateralAmount,\n            _positionAddress,\n            info.debtShareToBeLiquidated,\n            info.maxDebtShareToBeLiquidated,\n            _liquidatorAddress,\n            _collateralRecipient,\n            info.actualDebtShareToBeLiquidated,\n            info.actualDebtValueToBeLiquidated,\n            info.collateralAmountToBeLiquidated,\n            info.treasuryFees\n        );\n    }\n\n    function pause() external onlyOwnerOrGov {\n        _pause();\n    }\n\n    function unpause() external onlyOwnerOrGov {\n        _unpause();\n    }\n}\n",
    "sourcePath": "/Users/vitaliikoval/dev/fathom-stablecoin-smart-contracts/contracts/main/stablecoin-core/liquidation-strategies/FixedSpreadLiquidationStrategy.sol",
    "compiler": {
        "name": "solc",
        "version": "0.8.17+commit.8df45f5f.Emscripten.clang"
    },
    "schemaVersion": "3.4.10",
    "updatedAt": "2023-01-05T12:57:58.190Z",
    "devdoc": {
        "kind": "dev",
        "methods": {
            "paused()": {
                "details": "Returns true if the contract is paused, and false otherwise."
            }
        },
        "version": 1
    },
    "userdoc": {
        "kind": "user",
        "methods": {},
        "version": 1
    }
}